:100000000C942A000C9447000C9447000C94470071
:100010000C9447000C9447000C9447000C94470044
:100020000C9447000C9447000C9447000C94470034
:100030000C9447000C9447000C9447000C94470024
:100040000C9447000C9447000C9447000C94470014
:100050000C94470011241FBECFE5D8E0DEBFCDBF12
:1000600010E0A0E6B0E0EEE7F9E002C005900D92E6
:10007000AE37B107D9F710E0AEE7B0E001C01D928E
:10008000AE37B107E1F70E9449000C94BD040C940F
:100090000000EF92FF920F931F93CF93DF9300D056
:1000A00000D000D0CDB7DEB70E9439040E94820391
:1000B000DE011196E8E6F0E086E001900D928150B5
:1000C000E1F78E010F5F1F4F0F2EF7E0EF2EFF2499
:1000D000F02DEC0EFD1E0E94BF03D8018C938F3FC4
:1000E000D1F30E9476048FE798E3A1E0815090401D
:1000F000A040E1F700C000000F5F1F4F0E151F0565
:1001000051F70E9491048F818D3349F58C818B3298
:1001100031F58E8180538E839D81990F292F220F77
:10012000220F920F292F20532D830B8100530B8315
:1001300010E0080F111D8A81880F982F990F990FD1
:10014000890F805390E0820F911D080F191F80E6E0
:1001500090E00E948204802F805D0E94760480E0FF
:1001600090E026960FB6F894DEBF0FBECDBFDF91AC
:10017000CF911F910F91FF90EF900895843409F46F
:1001800071C0853448F4823499F1833408F04DC04D
:10019000813409F083C00FC0823651F1833620F4D8
:1001A000813609F07BC007C0833609F43EC084362F
:1001B00009F074C057C0413069F42AB381E090E07F
:1001C000AC0102C0440F551F6A95E2F7BA01622BD9
:1001D0006ABB08952AB381E090E0AC0102C0440FED
:1001E000551F6A95E2F7BA01609562236ABB0895CC
:1001F000413069F427B381E090E0AC0102C0440FC4
:10020000551F6A95E2F7BA01622B67BB089527B3C1
:1002100081E090E0AC0102C0440F551F6A95E2F7FF
:10022000BA016095622367BB0895413069F424B335
:1002300081E090E0AC0102C0440F551F6A95E2F7DF
:10024000BA01622B64BB089524B381E090E0AC0155
:1002500002C0440F551F6A95E2F7BA016095622308
:1002600064BB0895413069F421B381E090E0AC01B2
:1002700002C0440F551F6A95E2F7BA01622B61BBB9
:10028000089521B381E090E0AC0102C0440F551FF6
:100290006A95E2F7BA016095622361BB08958434E0
:1002A00009F471C0853448F4823499F1833408F03C
:1002B0004DC0813409F083C00FC0823651F18336BE
:1002C00020F4813609F07BC007C0833609F43EC0B4
:1002D000843609F074C057C0413069F42BB381E013
:1002E00090E0AC0102C0440F551F6A95E2F7BA01D5
:1002F000622B6BBB08952BB381E090E0AC0102C090
:10030000440F551F6A95E2F7BA01609562236BBBF3
:100310000895413069F428B381E090E0AC0102C057
:10032000440F551F6A95E2F7BA01622B68BB089526
:1003300028B381E090E0AC0102C0440F551F6A95DC
:10034000E2F7BA016095622368BB0895413069F411
:1003500025B381E090E0AC0102C0440F551F6A95BF
:10036000E2F7BA01622B65BB089525B381E090E006
:10037000AC0102C0440F551F6A95E2F7BA016095BF
:10038000622365BB0895413069F422B381E090E0B7
:10039000AC0102C0440F551F6A95E2F7BA01622B07
:1003A00062BB089522B381E090E0AC0102C0440F2B
:1003B000551F6A95E2F7BA016095622362BB089502
:1003C000843409F44EC0853440F4823431F18334EE
:1003D000B0F5813409F057C00EC08236F1F0833693
:1003E00020F4813609F04FC006C0833641F18436CF
:1003F00009F049C036C029B381E090E0062E02C062
:10040000880F991F0A94E2F730E08223932302C0F9
:10041000959587956A95E2F7089526B381E090E077
:10042000062E02C0880F991F0A94E2F730E082235B
:10043000932302C0959587956A95E2F7089523B3B3
:1004400081E090E0062E02C0880F991F0A94E2F71F
:1004500030E08223932302C0959587956A95E2F751
:10046000089520B381E090E0062E02C0880F991F06
:100470000A94E2F730E08223932302C09595879592
:100480006A95E2F7089580E00895843409F43DC048
:10049000853440F48234F9F0833450F5813409F026
:1004A00040C00CC08236B9F0833618F48136C9F5E5
:1004B00005C08336E9F08436A1F527C02BB381E06F
:1004C00090E0AC0102C0440F551F6A95E2F7BA01F3
:1004D00062276BBB089528B381E090E0AC0102C0B5
:1004E000440F551F6A95E2F7BA01622768BB089569
:1004F00025B381E090E0AC0102C0440F551F6A951E
:10050000E2F7BA01622765BB089522B381E090E06B
:10051000AC0102C0440F551F6A95E2F7BA01622789
:1005200062BB08958434D9F0853438F4823499F06C
:10053000833498F48134A1F40CC0823661F08336A0
:1005400018F4813669F405C0833639F0843641F4F5
:1005500006C06ABB089567BB089564BB089561BB7C
:1005600008958434D9F0853438F4823499F0833492
:1005700098F48134A1F40CC0823661F0833618F40B
:10058000813669F405C0833639F0843641F406C0FB
:100590006BBB089568BB089565BB089562BB089561
:1005A0008434D9F0853438F4823499F0833498F463
:1005B0008134A9F40CC0823661F0833618F4813698
:1005C00071F405C0833639F0843649F406C089B326
:1005D000089586B3089583B3089580B3089580E0A5
:1005E0000895843409F471C0853448F4823499F153
:1005F000833408F04DC0813409F083C00FC08236C7
:1006000051F1833620F4813609F07BC007C0833670
:1006100009F43EC0843609F074C057C0413069F413
:100620002BB381E090E0AC0102C0440F551F6A95E6
:10063000E2F7BA01622B6BBB08952BB381E090E027
:10064000AC0102C0440F551F6A95E2F7BA016095EC
:1006500062236BBB0895413069F428B381E090E0D8
:10066000AC0102C0440F551F6A95E2F7BA01622B34
:1006700068BB089528B381E090E0AC0102C0440F4C
:10068000551F6A95E2F7BA016095622368BB089529
:10069000413069F425B381E090E0AC0102C0440F21
:1006A000551F6A95E2F7BA01622B65BB089525B321
:1006B00081E090E0AC0102C0440F551F6A95E2F75B
:1006C000BA016095622365BB0895413069F422B395
:1006D00081E090E0AC0102C0440F551F6A95E2F73B
:1006E000BA01622B62BB089522B381E090E0AC01B5
:1006F00002C0440F551F6A95E2F7BA016095622364
:1007000062BB089584E460E041E00E94BE0084E49E
:1007100061E041E00E94BE0084E462E041E00E94AA
:10072000BE0084E463E041E00E94BE0084E464E033
:1007300040E00E94BE0084E465E040E00E94BE000C
:1007400084E466E040E00E94BE0084E467E040E0AC
:100750000E94BE0084E464E041E00E94F10284E46F
:1007600065E041E00E94F10284E466E041E00E941D
:10077000F10284E467E041E00E94F10208950F93E2
:100780001F93CF93DF93CDB7DEB760970FB6F89482
:10079000DEBF0FBECDBFDE011196EEE6F0E080E1D8
:1007A00001900D928150E1F700E084E460E041E0C7
:1007B0000E944F0184E461E041E00E944F0184E423
:1007C00062E041E00E944F0184E463E041E00E9466
:1007D0004F0184E4602F40E00E944F0110E0612F40
:1007E0006C5F84E40E94E001882361F4E02FF0E074
:1007F000EE0FFF1FEE0FFF1FE10FF11DEC0FFD1FAE
:10080000818104C01F5F143051F70BC060960FB692
:10081000F894DEBF0FBECDBFDF91CF911F910F9136
:1008200008950F5F043009F68FEFF0CF82E460E0A7
:1008300041E00E944F018FE99FE00197F1F700C06E
:10084000000082E460E040E00E944F018FE99FE0F9
:100850000197F1F700C000000895682F81E40E941D
:10086000B10282E461E040E00E944F010E94160460
:1008700008958FEF91EEA4E081509040A040E1F701
:1008800000C0000081E461E00E94920282E460E026
:1008900041E00E94BE0082E461E041E00E94BE00AF
:1008A00082E462E041E00E94BE0082E462E040E057
:1008B0000E944F0188E30E942D04AFECB7E011972E
:1008C000F1F700C000008EE00E942D048FEC97E04D
:1008D0000197F1F700C0000086E00E942D04AFEC04
:1008E000B7E01197F1F700C000000895682F81E488
:1008F0000E94B10282E461E041E00E944F010E9447
:1009000016040895CF93DF93EC018881882331F09A
:1009100021960E94760489918823D9F7DF91CF919F
:10092000089581E00E942D048FE19EE40197F1F784
:1009300000C000000895982F9150923070F46131FA
:1009400070F4662371F0813019F4862F81580CC041
:10095000823049F4862F815407C080E805C080E8C2
:1009600003C080E801C080E00E942D048FEC97E076
:0E0970000197F1F700C000000895F894FFCF42
:10097E00726573756C743D00FFFFFFFFFFFF373824
:0E098E00392F3435362A3132332D41303D2B8E
:00000001FF
